:020000040800F2
:10000000FF4F0020A9100008F1100008F1100008AF
:10001000F1100008F1100008F110000800000000C5
:10002000000000000000000000000000F1100008C7
:10003000F110000800000000F11000089D01000808
:10004000F1100008F1100008F1100008F11000088C
:10005000F1100008F1100008F1100008F11000087C
:10006000F1100008F1100008F1100008F11000086C
:10007000F1100008F1100008F1100008F11000085C
:10008000F1100008F1100008F1100008F11000084C
:10009000F1100008F1100008F1100008F11000083C
:1000A000F1100008F1100008F1100008F11000082C
:1000B000F1100008F1100008F1100008F11000081C
:1000C000F1100008F1100008F1100008F11000080C
:1000D000F1100008F1100008F1100008F1100008FC
:1000E000F1100008F1100008F110000800000000F5
:1000F0000000000000000000000000000000000000
:0C01000000000000000000005FF808F1A3
:10010C0010B5054C237833B9044B13B10448AFF345
:10011C0000800123237010BD0C00002000000000A3
:10012C00F410000808B5034B1BB103490348AFF3A7
:10013C00008008BD0000000010000020F410000832
:10014C0070B50F4B0F4DAB42A3EB050607D0002447
:10015C00B61055F8043B01349847A642F9D800F084
:10016C00C3FF094D094B5E1BAB424FEAA60606D0F6
:10017C00002455F8043B01349847A642F9D870BDC9
:10018C001C1200081C1200081C1200082012000887
:10019C0080B500AF00F0BAF900BF80BD80B58AB061
:1001AC0000AF00F067F900F09FF82D4B9B692C4ACB
:1001BC0043F0100393612A4B9B6903F010037B609F
:1001CC007B6807F1080300221A605A609A60DA60B3
:1001DC000123FB6000233B6102237B614FF400533E
:1001EC00BB6007F1080319461E4800F095FA01227E
:1001FC004FF400511B4800F0FDFB4023FB8400F042
:10020C0097F9386200F094F9F86100F091F9B8614F
:10021C00BA693B6AD31A1D2B13D9BB693B62FB8CA1
:10022C00114A32F813301946002000F0ADF8FB8C5F
:10023C0001335A4203F07F0302F07F0258BF53424E
:10024C00FB84BA69FB69D31AB3F5FA7FDDD3BB69BA
:10025C00FB614FF40051034800F0E4FBD5E700BF0D
:10026C0000100240001001400C11000880B588B04D
:10027C0000AF78607B681B68B3F1804F2CD1184BB2
:10028C00DB69174A43F00103D361154BDB6903F0BB
:10029C000103FB60FB68124B9B69114A43F004039A
:1002AC0093610F4B9B6903F00403BB60BB6807F1C0
:1002BC00100300221A605A609A60DA6002237B6194
:1002CC000023BB610223FB610F233B6107F1100389
:1002DC001946044800F020FA00BF2037BD4680BD07
:1002EC00001002400008014080B588B000AF244BDC
:1002FC004FF080421A60224B47225A60204B00225A
:10030C009A601F4B40F2E732DA601D4B00221A61F3
:10031C001B4B00229A611A4800F09CFB3B460022C2
:10032C001A605A609A60DA601A615A619A616023A5
:10033C003B6040F2E7337B600023BB6000233B61F2
:10034C000023FB6113E00F4AFB6952F823203B4664
:10035C0019460B4800F0DAFB0A4AFB6952F82330C5
:10036C001946074800F0A0FBFB690133FB61FB69F0
:10037C00032BE8DD00BF00BF2037BD4680BD00BFAA
:10038C00280000200C12000880B483B000AF034694
:10039C000A46FB711346BB80FB791A4A52F823308C
:1003AC00002B07D1BB88C3F579730333164A126847
:1003BC00536322E0FB79134A52F82330042B07D104
:1003CC00BB88C3F5797303330F4A1268936314E047
:1003DC00FB790C4A52F82330082B07D1BB88C3F5A4
:1003EC0079730333084A1268D36306E0BB88C3F5FC
:1003FC0079730333044A1268136400BF0C37BD468B
:10040C0080BC70470C1200082800002080B400AF9C
:10041C00154B1B68144A43F001031360124B5A68C6
:10042C001149124B13404B600F4B1B680E4A23F0C3
:10043C00847323F4803313600B4B1B680A4A23F438
:10044C0080231360084B5B68074A23F4FE03536058
:10045C00054B4FF41F029A60054B4FF000629A60F7
:10046C0000BFBD4680BC7047001002400000FFF882
:10047C0000ED00E080B500AF084B1B68074A43F065
:10048C0010031360032000F013F90F2000F00EF896
:10049C0000F006F80023184680BD00BF0020024083
:1004AC0080B400AF00BFBD4680BC704780B582B041
:1004BC0000AF7860124B1A68124B1B7819464FF438
:1004CC007A73B3FBF1F3B2FBF3F3184600F017F9B0
:1004DC000346002B01D001230EE07B680F2B0AD8BA
:1004EC00002279684FF0FF3000F0EDF8064A7B6887
:1004FC001360002300E0012318460837BD4680BD79
:10050C0000000020080000200400002080B400AF90
:10051C00054B1B781A46054B1B681344034A1360A2
:10052C0000BFBD4680BC704708000020680000205A
:10053C0080B400AF024B1B681846BD4680BC7047A8
:10054C006800002080B485B000AF78607B6803F051
:10055C000703FB600C4BDB68BB60BA684FF6FF030C
:10056C001340BB60FB681A02BB68134343F0BF63C4
:10057C0043F40033BB60044ABB68D36000BF14373C
:10058C00BD4680BC704700BF00ED00E080B400AFFA
:10059C00044BDB681B0A03F007031846BD4680BCFE
:1005AC00704700BF00ED00E080B483B000AF03469D
:1005BC003960FB7197F90730002B0ADB3B68DAB224
:1005CC000C4997F907301201D2B20B4483F800237F
:1005DC000AE03B68DAB20849FB7903F00F03043BED
:1005EC001201D2B20B441A7600BF0C37BD4680BC48
:1005FC00704700BF00E100E000ED00E080B489B07E
:10060C0000AFF860B9607A60FB6803F007037B61A8
:10061C007B69033B042B04D87B69C3F10703FB61A3
:10062C0001E00423FB617B690433062B03D97B694E
:10063C00033BBB6101E00023BB614FF0FF32FB6960
:10064C0002FA03F3DA43BB681A40BB699A404FF0D5
:10065C00FF31BB6901FA03F3D9437B680B401343A9
:10066C0018462437BD4680BC7047000080B582B068
:10067C0000AF78607B68013BB3F1807F01D301232D
:10068C000FE00A4A7B68013B53600F214FF0FF30AB
:10069C00FFF78AFF054B00229A60044B07221A6071
:1006AC00002318460837BD4680BD00BF10E000E0AF
:1006BC0080B582B000AF78607868FFF743FF00BF69
:1006CC000837BD4680BD80B586B000AF0346B96023
:1006DC007A60FB7300237B61FFF758FF78617A68BF
:1006EC00B9687869FFF78AFF024697F90F3011460F
:1006FC001846FFF759FF00BF1837BD4680BD80B5BF
:10070C0082B000AF78607868FFF7B0FF03461846F8
:10071C000837BD4680BD000080B48BB000AF786058
:10072C00396000237B6200233B6253E101227B6A28
:10073C0002FA03F37B613B681B687A6913403B61E7
:10074C003A697B699A4240F042813B685B688F4A08
:10075C00934247D08D4A93425ED88D4A934241D002
:10076C008B4A934258D88B4A93423BD0894A934246
:10077C0052D8894A934235D0874A93424CD8874AFB
:10078C0093422FD0854A934246D8854A934229D02A
:10079C00834A934240D8122B1FD0122B3CD8112BDA
:1007AC0011D0112B38D8032B33D0032B34D8022B78
:1007BC000ED0022B30D8002B14D0012B2CD13B683F
:1007CC00DB683B6229E03B68DB6804333B6224E076
:1007DC003B68DB6808333B621FE03B68DB680C332B
:1007EC003B621AE03B689B68002B02D104233B62FE
:1007FC0013E03B689B68012B05D108233B627B68A7
:10080C007A691A6109E008233B627B687A695A614C
:10081C0003E000233B6200E000BF3B69FF2B02D8E2
:10082C007B68FB6102E07B680433FB613B69FF2B57
:10083C0003D87B6A9B00BB6103E07B6A083B9B008F
:10084C00BB61FB691A680F21BB6901FA03F3DB4337
:10085C001A40396ABB6901FA03F31A43FB691A603F
:10086C003B685B6803F08053002B00F0B0804D4B6D
:10087C009B694C4A43F0010393614A4B9B6903F01B
:10088C000103BB60BB68484A7B6A9B08023352F881
:10089C002330FB607B6A03F003039B000F2202FAF8
:1008AC0003F3DB43FA681340FB607B683F4A9342D7
:1008BC0013D07B683E4A93420DD07B683D4A9342ED
:1008CC0007D07B683C4A934201D1032306E0042302
:1008DC0004E0022302E0012300E000237A6A02F024
:1008EC00030292009340FA681343FB602E497B6A23
:1008FC009B080233FA6841F823203B685B6803F4D9
:10090C008033002B06D02D4B1A682C493B691343BE
:10091C000B6006E0294B1A683B69DB4327491340FF
:10092C000B603B685B6803F40033002B06D0234B51
:10093C005A6822493B6913434B6006E01F4B5A68C7
:10094C003B69DB431D4913404B603B685B6803F418
:10095C008013002B06D0194B9A6818493B69134336
:10096C008B6006E0154B9A683B69DB4313491340D7
:10097C008B603B685B6803F40013002B20D00F4B9B
:10098C00DA680E493B691343CB6020E0000032105B
:10099C000000311000002210000021100000121085
:1009AC00000011100010024000000140000801403E
:1009BC00000C0140001001400014014000040140F3
:1009CC000B4BDA683B69DB4309491340CB607B6A0C
:1009DC0001337B623B681A687B6A22FA03F3002BB3
:1009EC007FF4A4AE00BF00BF2C37BD4680BC70475F
:1009FC000004014080B483B000AF78600B467B806C
:100A0C0013467B707B78002B03D07A887B681A6145
:100A1C0003E07B881A047B681A6100BF0C37BD4663
:100A2C0080BC704780B483B000AF78600B467B808D
:100A3C007B68DA687B881340002B03D07A887B684C
:100A4C005A6102E07A887B681A6100BF0C37BD4698
:100A5C0080BC704780B582B000AF78607B68002B9B
:100A6C0001D101231CE07B6893F83D30002B06D1AB
:100A7C007B68002283F83C207868FFF7F7FB7B68E3
:100A8C00022283F83D207B681A687B680433194680
:100A9C00104600F0F5F87B68012283F83D20002316
:100AAC0018460837BD4680BD80B584B000AF78606D
:100ABC0039607B681B6801223968184600F0CAFA55
:100ACC007B681B68104A934207D17B681B685A6C81
:100ADC007B681B6842F400425A647B681B689B6805
:100AEC0003F00703FB60FB68062B07D07B681B68D1
:100AFC001A687B681B6842F001021A6000231846D2
:100B0C001037BD4680BD00BF002C014080B584B0BD
:100B1C0000AFF860B9607A60FB6893F83C30012B49
:100B2C0001D10223A8E0FB68012283F83C20FB687A
:100B3C00022283F83D207B680C2B72D07B680C2B37
:100B4C0000F290807B68082B4BD07B68082B00F25E
:100B5C0089807B68002B03D07B68042B20D081E03C
:100B6C00FB681B68B968184600F0ECF8FB681B685A
:100B7C009A69FB681B6842F008029A61FB681B6863
:100B8C009A69FB681B6822F004029A61FB681B6877
:100B9C009969BB681A69FB681B680A439A6162E031
:100BAC00FB681B68B968184600F032F9FB681B68D3
:100BBC009A69FB681B6842F400629A61FB681B68C7
:100BCC009A69FB681B6822F480629A61FB681B6857
:100BDC009969BB681B691A02FB681B680A439A6116
:100BEC0041E0FB681B68B968184600F07BF9FB68AC
:100BFC001B68DA69FB681B6842F00802DA61FB6863
:100C0C001B68DA69FB681B6822F00402DA61FB6876
:100C1C001B68D969BB681A69FB681B680A43DA61EF
:100C2C0021E0FB681B68B968184600F0C5F9FB6841
:100C3C001B68DA69FB681B6842F40062DA61FB68C6
:100C4C001B68DA69FB681B6822F48062DA61FB6856
:100C5C001B68D969BB681B691A02FB681B680A43CD
:100C6C00DA6100E000BFFB68012283F83D20FB68DD
:100C7C00002283F83C20002318461037BD4680BD67
:100C8C0080B485B000AF786039607B681B68FB600E
:100C9C007B68294A93420BD07B68B3F1804F07D015
:100CAC007B68264A934203D07B68254A934208D13D
:100CBC00FB6823F07003FB603B685B68FA681343C6
:100CCC00FB607B681C4A93420BD07B68B3F1804F6E
:100CDC0007D07B68194A934203D07B68184A934229
:100CEC0008D1FB6823F44073FB603B68DB68FA684F
:100CFC001343FB60FB6823F080023B685B69134382
:100D0C00FB607B68FA681A603B689A687B68DA62F9
:100D1C003B681A687B689A627B68074A934203D1E6
:100D2C003B681A697B681A637B6801225A6100BFB1
:100D3C001437BD4680BC7047002C014000040040B5
:100D4C000008004080B487B000AF786039607B68E1
:100D5C001B6A23F001027B681A627B681B6A7B6149
:100D6C007B685B683B617B689B69FB60FB6823F07D
:100D7C007003FB60FB6823F00303FB603B681B689C
:100D8C00FA681343FB607B6923F002037B613B68C9
:100D9C009B687A6913437B617B681C4A93420CD134
:100DAC007B6923F008037B613B68DB687A6913433A
:100DBC007B617B6923F004037B617B68134A93425C
:100DCC0011D13B6923F480733B613B6923F40073BD
:100DDC003B613B685B693A6913433B613B689B69C8
:100DEC003A6913433B617B683A695A607B68FA68DD
:100DFC009A613B685A687B685A637B687A691A62A5
:100E0C0000BF1C37BD4680BC704700BF002C0140A2
:100E1C0080B487B000AF786039607B681B6A23F0C0
:100E2C0010027B681A627B681B6A7B617B685B685B
:100E3C003B617B689B69FB60FB6823F4E043FB60D0
:100E4C00FB6823F44073FB603B681B681B02FA6869
:100E5C001343FB607B6923F020037B613B689B6839
:100E6C001B017A6913437B617B681D4A93420DD148
:100E7C007B6923F080037B613B68DB681B017A692B
:100E8C0013437B617B6923F040037B617B68144ACD
:100E9C00934213D13B6923F480633B613B6923F498
:100EAC0000633B613B685B699B003A6913433B61A0
:100EBC003B689B699B003A6913433B617B683A69C9
:100ECC005A607B68FA689A613B685A687B689A63D7
:100EDC007B687A691A6200BF1C37BD4680BC7047BC
:100EEC00002C014080B487B000AF786039607B681B
:100EFC001B6A23F480727B681A627B681B6A7B61B5
:100F0C007B685B683B617B68DB69FB60FB6823F09B
:100F1C007003FB60FB6823F00303FB603B681B68FA
:100F2C00FA681343FB607B6923F400737B613B68B5
:100F3C009B681B027A6913437B617B681D4A934251
:100F4C000DD17B6923F400637B613B68DB681B027A
:100F5C007A6913437B617B6923F480637B617B68D3
:100F6C00144A934213D13B6923F480533B613B6990
:100F7C0023F400533B613B685B691B013A691343E3
:100F8C003B613B689B691B013A6913433B617B687E
:100F9C003A695A607B68FA68DA613B685A687B6820
:100FAC00DA637B687A691A6200BF1C37BD4680BC65
:100FBC00704700BF002C014080B487B000AF786050
:100FCC0039607B681B6A23F480527B681A627B68E9
:100FDC001B6A3B617B685B687B617B68DB69FB60E0
:100FEC00FB6823F4E043FB60FB6823F44073FB6075
:100FFC003B681B681B02FA681343FB603B6923F4D4
:10100C0000533B613B689B681B033A6913433B618C
:10101C007B680F4A934209D17B6923F480437B613F
:10102C003B685B699B017A6913437B617B687A69D6
:10103C005A607B68FA68DA613B685A687B681A64A4
:10104C007B683A691A6200BF1C37BD4680BC70478A
:10105C00002C014080B487B000AFF860B9607A60B2
:10106C00BB6803F01F03012202FA03F37B61FB68E8
:10107C001A6A7B69DB431A40FB681A62FB681A6ABE
:10108C00BB6803F01F03796801FA03F31A43FB688A
:10109C001A6200BF1C37BD4680BC7047002103E0BC
:1010AC000B4B5B58435004310A480B4B42189A4285
:1010BC00F6D30A4A02E0002342F8043B084B9A425A
:1010CC00F9D3FFF7A3F9FFF73BF8FFF767F8704781
:1010DC0024120008000000200C0000200C0000204E
:1010EC006C000020FEE70000F8B500BFF8BC08BC9F
:1010FC009E467047F8B500BFF8BC08BC9E467047CA
:10110C0000000100020005000A000F0016001D007F
:10111C00260030003B004700540062007100810043
:10112C009200A400B700CA00DE00F30008011E0103
:10113C0034014B0163017A019201AA01C301DB0165
:10114C00F3010C0224023D0255026D0284029C0242
:10115C00B302C902DF02F40209031D033003430387
:10116C0055036603760385039303A003AC03B7030F
:10117C00C103CA03D103D803DD03E203E503E6038D
:10118C00E703E603E503E203DD03D803D103CA0357
:10119C00C103B703AC03A003930385037603660373
:1011AC005503430330031D030903F402DF02C90294
:1011BC00B3029C0284026D0255023D0224020C0211
:1011CC00F401DB01C301AA0192017A0163014B0115
:1011DC0034011E010801F300DE00CA00B700A400B0
:1011EC009200810071006200540047003B00300007
:1011FC0026001D0016000F000A0005000200010069
:10120C000000000004000000080000000C000000BA
:04121C003101000894
:041220000D010008B4
:0C1224000024F400100000000100000095
:04000005080010A936
:00000001FF
